{
  "transactions": [
    {
      "hash": "0x18caa8e48d569b306a8cb3b2c456f5cf80431d08dbba8c0510451f3b9496742f",
      "transactionType": "CALL",
      "contractName": null,
      "contractAddress": "0xb5a4db33256782398d6bd42c49c42819a4b9953d",
      "function": "swapChzForFan(uint256,address[])",
      "arguments": [
        "2",
        "[0x678c34581db0a7808d0aC669d7025f1408C9a3C6, 0xd1CD747B46750D807076BfC75f98b6c5b236898D]"
      ],
      "transaction": {
        "from": "0xbcebb2142addc73be7c185551819c929c594d7a9",
        "to": "0xb5a4db33256782398d6bd42c49c42819a4b9953d",
        "gas": "0x3066d",
        "value": "0x4563918244f40000",
        "input": "0xb77e2a61000000000000000000000000000000000000000000000000000000000000000200000000000000000000000000000000000000000000000000000000000000400000000000000000000000000000000000000000000000000000000000000002000000000000000000000000678c34581db0a7808d0ac669d7025f1408c9a3c6000000000000000000000000d1cd747b46750d807076bfc75f98b6c5b236898d",
        "nonce": "0x9",
        "chainId": "0x15b32"
      },
      "additionalContracts": [],
      "isFixedGasLimit": false
    }
  ],
  "receipts": [
    {
      "status": "0x1",
      "cumulativeGasUsed": "0x4caae2",
      "logs": [
        {
          "address": "0x678c34581db0a7808d0ac669d7025f1408c9a3c6",
          "topics": [
            "0xe1fffcc4923d04b559f4d29a8bfc6cda04eb5b0d3c460751c2402c5c5cc9109c",
            "0x000000000000000000000000b82b0e988a1fca39602c5079382d360c870b44c8"
          ],
          "data": "0x0000000000000000000000000000000000000000000000004563918244f40000",
          "blockHash": "0x38966cfc9d478982e2225fe7feeec209bb679137c03a31d1e530208d764bd1bd",
          "blockNumber": "0x19076f3",
          "transactionHash": "0x18caa8e48d569b306a8cb3b2c456f5cf80431d08dbba8c0510451f3b9496742f",
          "transactionIndex": "0x1",
          "logIndex": "0x1",
          "removed": false
        },
        {
          "address": "0x678c34581db0a7808d0ac669d7025f1408c9a3c6",
          "topics": [
            "0xddf252ad1be2c89b69c2b068fc378daa952ba7f163c4a11628f55a4df523b3ef",
            "0x000000000000000000000000b82b0e988a1fca39602c5079382d360c870b44c8",
            "0x0000000000000000000000006cd9341581bba0ec641179299ba02c842437fc6c"
          ],
          "data": "0x0000000000000000000000000000000000000000000000004563918244f40000",
          "blockHash": "0x38966cfc9d478982e2225fe7feeec209bb679137c03a31d1e530208d764bd1bd",
          "blockNumber": "0x19076f3",
          "transactionHash": "0x18caa8e48d569b306a8cb3b2c456f5cf80431d08dbba8c0510451f3b9496742f",
          "transactionIndex": "0x1",
          "logIndex": "0x2",
          "removed": false
        },
        {
          "address": "0xd1cd747b46750d807076bfc75f98b6c5b236898d",
          "topics": [
            "0xddf252ad1be2c89b69c2b068fc378daa952ba7f163c4a11628f55a4df523b3ef",
            "0x0000000000000000000000006cd9341581bba0ec641179299ba02c842437fc6c",
            "0x000000000000000000000000bcebb2142addc73be7c185551819c929c594d7a9"
          ],
          "data": "0x0000000000000000000000000000000000000000000000000000000000013048",
          "blockHash": "0x38966cfc9d478982e2225fe7feeec209bb679137c03a31d1e530208d764bd1bd",
          "blockNumber": "0x19076f3",
          "transactionHash": "0x18caa8e48d569b306a8cb3b2c456f5cf80431d08dbba8c0510451f3b9496742f",
          "transactionIndex": "0x1",
          "logIndex": "0x3",
          "removed": false
        },
        {
          "address": "0x6cd9341581bba0ec641179299ba02c842437fc6c",
          "topics": [
            "0x1c411e9a96e071241c2f21f7726b17ae89e3cab4c78be50e062b03a9fffbbad1"
          ],
          "data": "0x00000000000000000000000000000000000000000000000d2c4d6c87e3ec0000000000000000000000000000000000000000000000000000000000000038bf7a",
          "blockHash": "0x38966cfc9d478982e2225fe7feeec209bb679137c03a31d1e530208d764bd1bd",
          "blockNumber": "0x19076f3",
          "transactionHash": "0x18caa8e48d569b306a8cb3b2c456f5cf80431d08dbba8c0510451f3b9496742f",
          "transactionIndex": "0x1",
          "logIndex": "0x4",
          "removed": false
        },
        {
          "address": "0x6cd9341581bba0ec641179299ba02c842437fc6c",
          "topics": [
            "0xd78ad95fa46c994b6551d0da85fc275fe613ce37657fb8d5e3d130840159d822",
            "0x000000000000000000000000b82b0e988a1fca39602c5079382d360c870b44c8",
            "0x000000000000000000000000bcebb2142addc73be7c185551819c929c594d7a9"
          ],
          "data": "0x0000000000000000000000000000000000000000000000004563918244f40000000000000000000000000000000000000000000000000000000000000000000000000000000000000000000000000000000000000000000000000000000000000000000000000000000000000000000000000000000000000000000000013048",
          "blockHash": "0x38966cfc9d478982e2225fe7feeec209bb679137c03a31d1e530208d764bd1bd",
          "blockNumber": "0x19076f3",
          "transactionHash": "0x18caa8e48d569b306a8cb3b2c456f5cf80431d08dbba8c0510451f3b9496742f",
          "transactionIndex": "0x1",
          "logIndex": "0x5",
          "removed": false
        }
      ],
      "logsBloom": "0x00200000000000800000000080000000000000000008000000000000000000000000001000000000000000000000000000000000200000000000000000004000000000000000000000002008000000200000002000000000000000008000000000000000000000000000000000000000000000000000000000000019000080000000000000000000100000000000000000000001000000080000004000000000000400000000004000000000000000000000000000000000000000000200000000000002000000000010000000000000000000000000001000000040000000000000000000400000000000000000000000000000000000400000000001000000",
      "type": "0x2",
      "transactionHash": "0x18caa8e48d569b306a8cb3b2c456f5cf80431d08dbba8c0510451f3b9496742f",
      "transactionIndex": "0x1",
      "blockHash": "0x38966cfc9d478982e2225fe7feeec209bb679137c03a31d1e530208d764bd1bd",
      "blockNumber": "0x19076f3",
      "gasUsed": "0x230ad",
      "effectiveGasPrice": "0x2464f377200",
      "from": "0xbcebb2142addc73be7c185551819c929c594d7a9",
      "to": "0xb5a4db33256782398d6bd42c49c42819a4b9953d",
      "contractAddress": null
    }
  ],
  "libraries": [],
  "pending": [],
  "returns": {},
  "timestamp": 1752349973,
  "chain": 88882,
  "commit": "fd91ac5"
}